{
  "_format": "hh-sol-artifact-1",
  "contractName": "GeekNFT",
  "sourceName": "contracts/GeekNFT.sol",
  "abi": [
    {
      "inputs": [],
      "stateMutability": "nonpayable",
      "type": "constructor"
    },
    {
      "anonymous": false,
      "inputs": [
        {
          "indexed": true,
          "internalType": "address",
          "name": "owner",
          "type": "address"
        },
        {
          "indexed": true,
          "internalType": "address",
          "name": "approved",
          "type": "address"
        },
        {
          "indexed": true,
          "internalType": "uint256",
          "name": "tokenId",
          "type": "uint256"
        }
      ],
      "name": "Approval",
      "type": "event"
    },
    {
      "anonymous": false,
      "inputs": [
        {
          "indexed": true,
          "internalType": "address",
          "name": "owner",
          "type": "address"
        },
        {
          "indexed": true,
          "internalType": "address",
          "name": "operator",
          "type": "address"
        },
        {
          "indexed": false,
          "internalType": "bool",
          "name": "approved",
          "type": "bool"
        }
      ],
      "name": "ApprovalForAll",
      "type": "event"
    },
    {
      "anonymous": false,
      "inputs": [
        {
          "indexed": false,
          "internalType": "uint256",
          "name": "_fromTokenId",
          "type": "uint256"
        },
        {
          "indexed": false,
          "internalType": "uint256",
          "name": "_toTokenId",
          "type": "uint256"
        }
      ],
      "name": "BatchMetadataUpdate",
      "type": "event"
    },
    {
      "anonymous": false,
      "inputs": [
        {
          "indexed": false,
          "internalType": "uint256",
          "name": "_tokenId",
          "type": "uint256"
        }
      ],
      "name": "MetadataUpdate",
      "type": "event"
    },
    {
      "anonymous": false,
      "inputs": [
        {
          "indexed": true,
          "internalType": "address",
          "name": "from",
          "type": "address"
        },
        {
          "indexed": true,
          "internalType": "address",
          "name": "to",
          "type": "address"
        },
        {
          "indexed": true,
          "internalType": "uint256",
          "name": "tokenId",
          "type": "uint256"
        }
      ],
      "name": "Transfer",
      "type": "event"
    },
    {
      "inputs": [
        {
          "internalType": "address",
          "name": "_admin",
          "type": "address"
        }
      ],
      "name": "addAdmin",
      "outputs": [],
      "stateMutability": "nonpayable",
      "type": "function"
    },
    {
      "inputs": [
        {
          "internalType": "address",
          "name": "",
          "type": "address"
        }
      ],
      "name": "adminStatus",
      "outputs": [
        {
          "internalType": "bool",
          "name": "",
          "type": "bool"
        }
      ],
      "stateMutability": "view",
      "type": "function"
    },
    {
      "inputs": [
        {
          "internalType": "uint256",
          "name": "",
          "type": "uint256"
        }
      ],
      "name": "admins",
      "outputs": [
        {
          "internalType": "address",
          "name": "",
          "type": "address"
        }
      ],
      "stateMutability": "view",
      "type": "function"
    },
    {
      "inputs": [
        {
          "internalType": "address",
          "name": "to",
          "type": "address"
        },
        {
          "internalType": "uint256",
          "name": "tokenId",
          "type": "uint256"
        }
      ],
      "name": "approve",
      "outputs": [],
      "stateMutability": "nonpayable",
      "type": "function"
    },
    {
      "inputs": [
        {
          "internalType": "address",
          "name": "owner",
          "type": "address"
        }
      ],
      "name": "balanceOf",
      "outputs": [
        {
          "internalType": "uint256",
          "name": "",
          "type": "uint256"
        }
      ],
      "stateMutability": "view",
      "type": "function"
    },
    {
      "inputs": [
        {
          "internalType": "address",
          "name": "",
          "type": "address"
        }
      ],
      "name": "certificateTrack",
      "outputs": [
        {
          "internalType": "uint256",
          "name": "",
          "type": "uint256"
        }
      ],
      "stateMutability": "view",
      "type": "function"
    },
    {
      "inputs": [
        {
          "internalType": "uint256",
          "name": "tokenId",
          "type": "uint256"
        }
      ],
      "name": "getApproved",
      "outputs": [
        {
          "internalType": "address",
          "name": "",
          "type": "address"
        }
      ],
      "stateMutability": "view",
      "type": "function"
    },
    {
      "inputs": [
        {
          "internalType": "address",
          "name": "owner",
          "type": "address"
        },
        {
          "internalType": "address",
          "name": "operator",
          "type": "address"
        }
      ],
      "name": "isApprovedForAll",
      "outputs": [
        {
          "internalType": "bool",
          "name": "",
          "type": "bool"
        }
      ],
      "stateMutability": "view",
      "type": "function"
    },
    {
      "inputs": [],
      "name": "name",
      "outputs": [
        {
          "internalType": "string",
          "name": "",
          "type": "string"
        }
      ],
      "stateMutability": "view",
      "type": "function"
    },
    {
      "inputs": [],
      "name": "owner",
      "outputs": [
        {
          "internalType": "address",
          "name": "",
          "type": "address"
        }
      ],
      "stateMutability": "view",
      "type": "function"
    },
    {
      "inputs": [
        {
          "internalType": "uint256",
          "name": "tokenId",
          "type": "uint256"
        }
      ],
      "name": "ownerOf",
      "outputs": [
        {
          "internalType": "address",
          "name": "",
          "type": "address"
        }
      ],
      "stateMutability": "view",
      "type": "function"
    },
    {
      "inputs": [
        {
          "internalType": "address",
          "name": "from",
          "type": "address"
        },
        {
          "internalType": "address",
          "name": "to",
          "type": "address"
        },
        {
          "internalType": "uint256",
          "name": "tokenId",
          "type": "uint256"
        }
      ],
      "name": "safeTransferFrom",
      "outputs": [],
      "stateMutability": "nonpayable",
      "type": "function"
    },
    {
      "inputs": [
        {
          "internalType": "address",
          "name": "from",
          "type": "address"
        },
        {
          "internalType": "address",
          "name": "to",
          "type": "address"
        },
        {
          "internalType": "uint256",
          "name": "tokenId",
          "type": "uint256"
        },
        {
          "internalType": "bytes",
          "name": "data",
          "type": "bytes"
        }
      ],
      "name": "safeTransferFrom",
      "outputs": [],
      "stateMutability": "nonpayable",
      "type": "function"
    },
    {
      "inputs": [
        {
          "internalType": "address",
          "name": "student",
          "type": "address"
        },
        {
          "internalType": "string",
          "name": "_certificateURI",
          "type": "string"
        }
      ],
      "name": "sendCertificate",
      "outputs": [],
      "stateMutability": "nonpayable",
      "type": "function"
    },
    {
      "inputs": [
        {
          "internalType": "address",
          "name": "operator",
          "type": "address"
        },
        {
          "internalType": "bool",
          "name": "approved",
          "type": "bool"
        }
      ],
      "name": "setApprovalForAll",
      "outputs": [],
      "stateMutability": "nonpayable",
      "type": "function"
    },
    {
      "inputs": [
        {
          "internalType": "address",
          "name": "",
          "type": "address"
        }
      ],
      "name": "studentCertificateStatus",
      "outputs": [
        {
          "internalType": "bool",
          "name": "",
          "type": "bool"
        }
      ],
      "stateMutability": "view",
      "type": "function"
    },
    {
      "inputs": [
        {
          "internalType": "address",
          "name": "",
          "type": "address"
        }
      ],
      "name": "studentCertificates",
      "outputs": [
        {
          "internalType": "uint8",
          "name": "",
          "type": "uint8"
        }
      ],
      "stateMutability": "view",
      "type": "function"
    },
    {
      "inputs": [
        {
          "internalType": "bytes4",
          "name": "interfaceId",
          "type": "bytes4"
        }
      ],
      "name": "supportsInterface",
      "outputs": [
        {
          "internalType": "bool",
          "name": "",
          "type": "bool"
        }
      ],
      "stateMutability": "view",
      "type": "function"
    },
    {
      "inputs": [],
      "name": "symbol",
      "outputs": [
        {
          "internalType": "string",
          "name": "",
          "type": "string"
        }
      ],
      "stateMutability": "view",
      "type": "function"
    },
    {
      "inputs": [
        {
          "internalType": "uint256",
          "name": "tokenId",
          "type": "uint256"
        }
      ],
      "name": "tokenURI",
      "outputs": [
        {
          "internalType": "string",
          "name": "",
          "type": "string"
        }
      ],
      "stateMutability": "view",
      "type": "function"
    },
    {
      "inputs": [
        {
          "internalType": "address",
          "name": "from",
          "type": "address"
        },
        {
          "internalType": "address",
          "name": "to",
          "type": "address"
        },
        {
          "internalType": "uint256",
          "name": "tokenId",
          "type": "uint256"
        }
      ],
      "name": "transferFrom",
      "outputs": [],
      "stateMutability": "nonpayable",
      "type": "function"
    }
  ],
  "bytecode": "0x60806040523480156200001157600080fd5b506040518060400160405280600781526020017f4745454b4e4654000000000000000000000000000000000000000000000000008152506040518060400160405280600481526020017f474e46540000000000000000000000000000000000000000000000000000000081525081600090816200008f919062000420565b508060019081620000a1919062000420565b50505033600760006101000a81548173ffffffffffffffffffffffffffffffffffffffff021916908373ffffffffffffffffffffffffffffffffffffffff1602179055506008339080600181540180825580915050600190039060005260206000200160009091909190916101000a81548173ffffffffffffffffffffffffffffffffffffffff021916908373ffffffffffffffffffffffffffffffffffffffff1602179055506001600d60003373ffffffffffffffffffffffffffffffffffffffff1673ffffffffffffffffffffffffffffffffffffffff16815260200190815260200160002060006101000a81548160ff02191690831515021790555062000507565b600081519050919050565b7f4e487b7100000000000000000000000000000000000000000000000000000000600052604160045260246000fd5b7f4e487b7100000000000000000000000000000000000000000000000000000000600052602260045260246000fd5b600060028204905060018216806200022857607f821691505b6020821081036200023e576200023d620001e0565b5b50919050565b60008190508160005260206000209050919050565b60006020601f8301049050919050565b600082821b905092915050565b600060088302620002a87fffffffffffffffffffffffffffffffffffffffffffffffffffffffffffffffff8262000269565b620002b4868362000269565b95508019841693508086168417925050509392505050565b6000819050919050565b6000819050919050565b600062000301620002fb620002f584620002cc565b620002d6565b620002cc565b9050919050565b6000819050919050565b6200031d83620002e0565b620003356200032c8262000308565b84845462000276565b825550505050565b600090565b6200034c6200033d565b6200035981848462000312565b505050565b5b8181101562000381576200037560008262000342565b6001810190506200035f565b5050565b601f821115620003d0576200039a8162000244565b620003a58462000259565b81016020851015620003b5578190505b620003cd620003c48562000259565b8301826200035e565b50505b505050565b600082821c905092915050565b6000620003f560001984600802620003d5565b1980831691505092915050565b6000620004108383620003e2565b9150826002028217905092915050565b6200042b82620001a6565b67ffffffffffffffff811115620004475762000446620001b1565b5b6200045382546200020f565b6200046082828562000385565b600060209050601f83116001811462000498576000841562000483578287015190505b6200048f858262000402565b865550620004ff565b601f198416620004a88662000244565b60005b82811015620004d257848901518255600182019150602085019450602081019050620004ab565b86831015620004f25784890151620004ee601f891682620003e2565b8355505b6001600288020188555050505b505050505050565b61347e80620005176000396000f3fe608060405234801561001057600080fd5b50600436106101375760003560e01c806369b16ff5116100b8578063a22cb4651161007c578063a22cb46514610372578063a3daddc51461038e578063b88d4fde146103be578063c87b56dd146103da578063e8d346cc1461040a578063e985e9c51461043a57610137565b806369b16ff5146102ce57806370480275146102ea57806370a08231146103065780638da5cb5b1461033657806395d89b411461035457610137565b806314bfd6d0116100ff57806314bfd6d01461020657806323b872dd146102365780633e4a89d11461025257806342842e0e146102825780636352211e1461029e57610137565b806301ffc9a71461013c57806303b3e67a1461016c57806306fdde031461019c578063081812fc146101ba578063095ea7b3146101ea575b600080fd5b610156600480360381019061015191906120da565b61046a565b6040516101639190612122565b60405180910390f35b6101866004803603810190610181919061219b565b6104cb565b6040516101939190612122565b60405180910390f35b6101a46104eb565b6040516101b19190612258565b60405180910390f35b6101d460048036038101906101cf91906122b0565b61057d565b6040516101e191906122ec565b60405180910390f35b61020460048036038101906101ff9190612307565b6105c3565b005b610220600480360381019061021b91906122b0565b6106da565b60405161022d91906122ec565b60405180910390f35b610250600480360381019061024b9190612347565b610719565b005b61026c6004803603810190610267919061219b565b610779565b6040516102799190612122565b60405180910390f35b61029c60048036038101906102979190612347565b610799565b005b6102b860048036038101906102b391906122b0565b6107b9565b6040516102c591906122ec565b60405180910390f35b6102e860048036038101906102e391906124cf565b61083f565b005b61030460048036038101906102ff919061219b565b610aa3565b005b610320600480360381019061031b919061219b565b610ced565b60405161032d919061253a565b60405180910390f35b61033e610da4565b60405161034b91906122ec565b60405180910390f35b61035c610dca565b6040516103699190612258565b60405180910390f35b61038c60048036038101906103879190612581565b610e5c565b005b6103a860048036038101906103a3919061219b565b610e72565b6040516103b591906125dd565b60405180910390f35b6103d860048036038101906103d39190612699565b610e92565b005b6103f460048036038101906103ef91906122b0565b610ef4565b6040516104019190612258565b60405180910390f35b610424600480360381019061041f919061219b565b611006565b604051610431919061253a565b60405180910390f35b610454600480360381019061044f919061271c565b61101e565b6040516104619190612122565b60405180910390f35b6000634906490660e01b7bffffffffffffffffffffffffffffffffffffffffffffffffffffffff1916827bffffffffffffffffffffffffffffffffffffffffffffffffffffffff191614806104c457506104c3826110b2565b5b9050919050565b600b6020528060005260406000206000915054906101000a900460ff1681565b6060600080546104fa9061278b565b80601f01602080910402602001604051908101604052809291908181526020018280546105269061278b565b80156105735780601f1061054857610100808354040283529160200191610573565b820191906000526020600020905b81548152906001019060200180831161055657829003601f168201915b5050505050905090565b600061058882611194565b6004600083815260200190815260200160002060009054906101000a900473ffffffffffffffffffffffffffffffffffffffff169050919050565b60006105ce826107b9565b90508073ffffffffffffffffffffffffffffffffffffffff168373ffffffffffffffffffffffffffffffffffffffff160361063e576040517f08c379a00000000000000000000000000000000000000000000000000000000081526004016106359061282e565b60405180910390fd5b8073ffffffffffffffffffffffffffffffffffffffff1661065d6111df565b73ffffffffffffffffffffffffffffffffffffffff16148061068c575061068b816106866111df565b61101e565b5b6106cb576040517f08c379a00000000000000000000000000000000000000000000000000000000081526004016106c2906128c0565b60405180910390fd5b6106d583836111e7565b505050565b600881815481106106ea57600080fd5b906000526020600020016000915054906101000a900473ffffffffffffffffffffffffffffffffffffffff1681565b61072a6107246111df565b826112a0565b610769576040517f08c379a000000000000000000000000000000000000000000000000000000000815260040161076090612952565b60405180910390fd5b610774838383611335565b505050565b600d6020528060005260406000206000915054906101000a900460ff1681565b6107b483838360405180602001604052806000815250610e92565b505050565b6000806107c58361162e565b9050600073ffffffffffffffffffffffffffffffffffffffff168173ffffffffffffffffffffffffffffffffffffffff1603610836576040517f08c379a000000000000000000000000000000000000000000000000000000000815260040161082d906129be565b60405180910390fd5b80915050919050565b600d60003373ffffffffffffffffffffffffffffffffffffffff1673ffffffffffffffffffffffffffffffffffffffff16815260200190815260200160002060009054906101000a900460ff166108cb576040517f08c379a00000000000000000000000000000000000000000000000000000000081526004016108c290612a2a565b60405180910390fd5b6000600a60008473ffffffffffffffffffffffffffffffffffffffff1673ffffffffffffffffffffffffffffffffffffffff16815260200190815260200160002060009054906101000a900460ff1660ff161480156109575750600073ffffffffffffffffffffffffffffffffffffffff168273ffffffffffffffffffffffffffffffffffffffff1614155b15610975576009600081548092919061096f90612a79565b91905055505b6001600a60008473ffffffffffffffffffffffffffffffffffffffff1673ffffffffffffffffffffffffffffffffffffffff16815260200190815260200160002060008282829054906101000a900460ff166109d19190612ac1565b92506101000a81548160ff021916908360ff1602179055506001600b60008473ffffffffffffffffffffffffffffffffffffffff1673ffffffffffffffffffffffffffffffffffffffff16815260200190815260200160002060006101000a81548160ff021916908315150217905550600954600c60008473ffffffffffffffffffffffffffffffffffffffff1673ffffffffffffffffffffffffffffffffffffffff16815260200190815260200160002081905550610a938260095461166b565b610a9f60095482611689565b5050565b3373ffffffffffffffffffffffffffffffffffffffff16600760009054906101000a900473ffffffffffffffffffffffffffffffffffffffff1673ffffffffffffffffffffffffffffffffffffffff1614610b33576040517f08c379a0000000000000000000000000000000000000000000000000000000008152600401610b2a90612b42565b60405180910390fd5b600073ffffffffffffffffffffffffffffffffffffffff168173ffffffffffffffffffffffffffffffffffffffff1603610ba2576040517f08c379a0000000000000000000000000000000000000000000000000000000008152600401610b9990612bae565b60405180910390fd5b600d60008273ffffffffffffffffffffffffffffffffffffffff1673ffffffffffffffffffffffffffffffffffffffff16815260200190815260200160002060009054906101000a900460ff1615610c2f576040517f08c379a0000000000000000000000000000000000000000000000000000000008152600401610c2690612c1a565b60405180910390fd5b6008819080600181540180825580915050600190039060005260206000200160009091909190916101000a81548173ffffffffffffffffffffffffffffffffffffffff021916908373ffffffffffffffffffffffffffffffffffffffff1602179055506001600d60008373ffffffffffffffffffffffffffffffffffffffff1673ffffffffffffffffffffffffffffffffffffffff16815260200190815260200160002060006101000a81548160ff02191690831515021790555050565b60008073ffffffffffffffffffffffffffffffffffffffff168273ffffffffffffffffffffffffffffffffffffffff1603610d5d576040517f08c379a0000000000000000000000000000000000000000000000000000000008152600401610d5490612cac565b60405180910390fd5b600360008373ffffffffffffffffffffffffffffffffffffffff1673ffffffffffffffffffffffffffffffffffffffff168152602001908152602001600020549050919050565b600760009054906101000a900473ffffffffffffffffffffffffffffffffffffffff1681565b606060018054610dd99061278b565b80601f0160208091040260200160405190810160405280929190818152602001828054610e059061278b565b8015610e525780601f10610e2757610100808354040283529160200191610e52565b820191906000526020600020905b815481529060010190602001808311610e3557829003601f168201915b5050505050905090565b610e6e610e676111df565b838361172d565b5050565b600a6020528060005260406000206000915054906101000a900460ff1681565b610ea3610e9d6111df565b836112a0565b610ee2576040517f08c379a0000000000000000000000000000000000000000000000000000000008152600401610ed990612952565b60405180910390fd5b610eee84848484611899565b50505050565b6060610eff82611194565b6000600660008481526020019081526020016000208054610f1f9061278b565b80601f0160208091040260200160405190810160405280929190818152602001828054610f4b9061278b565b8015610f985780601f10610f6d57610100808354040283529160200191610f98565b820191906000526020600020905b815481529060010190602001808311610f7b57829003601f168201915b505050505090506000610fa96118f5565b90506000815103610fbe578192505050611001565b600082511115610ff3578082604051602001610fdb929190612d08565b60405160208183030381529060405292505050611001565b610ffc8461190c565b925050505b919050565b600c6020528060005260406000206000915090505481565b6000600560008473ffffffffffffffffffffffffffffffffffffffff1673ffffffffffffffffffffffffffffffffffffffff16815260200190815260200160002060008373ffffffffffffffffffffffffffffffffffffffff1673ffffffffffffffffffffffffffffffffffffffff16815260200190815260200160002060009054906101000a900460ff16905092915050565b60007f80ac58cd000000000000000000000000000000000000000000000000000000007bffffffffffffffffffffffffffffffffffffffffffffffffffffffff1916827bffffffffffffffffffffffffffffffffffffffffffffffffffffffff1916148061117d57507f5b5e139f000000000000000000000000000000000000000000000000000000007bffffffffffffffffffffffffffffffffffffffffffffffffffffffff1916827bffffffffffffffffffffffffffffffffffffffffffffffffffffffff1916145b8061118d575061118c82611974565b5b9050919050565b61119d816119de565b6111dc576040517f08c379a00000000000000000000000000000000000000000000000000000000081526004016111d3906129be565b60405180910390fd5b50565b600033905090565b816004600083815260200190815260200160002060006101000a81548173ffffffffffffffffffffffffffffffffffffffff021916908373ffffffffffffffffffffffffffffffffffffffff160217905550808273ffffffffffffffffffffffffffffffffffffffff1661125a836107b9565b73ffffffffffffffffffffffffffffffffffffffff167f8c5be1e5ebec7d5bd14f71427d1e84f3dd0314c0f7b2291e5b200ac8c7c3b92560405160405180910390a45050565b6000806112ac836107b9565b90508073ffffffffffffffffffffffffffffffffffffffff168473ffffffffffffffffffffffffffffffffffffffff1614806112ee57506112ed818561101e565b5b8061132c57508373ffffffffffffffffffffffffffffffffffffffff166113148461057d565b73ffffffffffffffffffffffffffffffffffffffff16145b91505092915050565b8273ffffffffffffffffffffffffffffffffffffffff16611355826107b9565b73ffffffffffffffffffffffffffffffffffffffff16146113ab576040517f08c379a00000000000000000000000000000000000000000000000000000000081526004016113a290612d9e565b60405180910390fd5b600073ffffffffffffffffffffffffffffffffffffffff168273ffffffffffffffffffffffffffffffffffffffff160361141a576040517f08c379a000000000000000000000000000000000000000000000000000000000815260040161141190612e30565b60405180910390fd5b6114278383836001611a1f565b8273ffffffffffffffffffffffffffffffffffffffff16611447826107b9565b73ffffffffffffffffffffffffffffffffffffffff161461149d576040517f08c379a000000000000000000000000000000000000000000000000000000000815260040161149490612d9e565b60405180910390fd5b6004600082815260200190815260200160002060006101000a81549073ffffffffffffffffffffffffffffffffffffffff02191690556001600360008573ffffffffffffffffffffffffffffffffffffffff1673ffffffffffffffffffffffffffffffffffffffff168152602001908152602001600020600082825403925050819055506001600360008473ffffffffffffffffffffffffffffffffffffffff1673ffffffffffffffffffffffffffffffffffffffff16815260200190815260200160002060008282540192505081905550816002600083815260200190815260200160002060006101000a81548173ffffffffffffffffffffffffffffffffffffffff021916908373ffffffffffffffffffffffffffffffffffffffff160217905550808273ffffffffffffffffffffffffffffffffffffffff168473ffffffffffffffffffffffffffffffffffffffff167fddf252ad1be2c89b69c2b068fc378daa952ba7f163c4a11628f55a4df523b3ef60405160405180910390a46116298383836001611a25565b505050565b60006002600083815260200190815260200160002060009054906101000a900473ffffffffffffffffffffffffffffffffffffffff169050919050565b611685828260405180602001604052806000815250611a2b565b5050565b611692826119de565b6116d1576040517f08c379a00000000000000000000000000000000000000000000000000000000081526004016116c890612ec2565b60405180910390fd5b806006600084815260200190815260200160002090816116f1919061308e565b507ff8e1a15aba9398e019f0b49df1a4fde98ee17ae345cb5f6b5e2c27f5033e8ce782604051611721919061253a565b60405180910390a15050565b8173ffffffffffffffffffffffffffffffffffffffff168373ffffffffffffffffffffffffffffffffffffffff160361179b576040517f08c379a0000000000000000000000000000000000000000000000000000000008152600401611792906131ac565b60405180910390fd5b80600560008573ffffffffffffffffffffffffffffffffffffffff1673ffffffffffffffffffffffffffffffffffffffff16815260200190815260200160002060008473ffffffffffffffffffffffffffffffffffffffff1673ffffffffffffffffffffffffffffffffffffffff16815260200190815260200160002060006101000a81548160ff0219169083151502179055508173ffffffffffffffffffffffffffffffffffffffff168373ffffffffffffffffffffffffffffffffffffffff167f17307eab39ab6107e8899845ad3d59bd9653f200f220920489ca2b5937696c318360405161188c9190612122565b60405180910390a3505050565b6118a4848484611335565b6118b084848484611a86565b6118ef576040517f08c379a00000000000000000000000000000000000000000000000000000000081526004016118e69061323e565b60405180910390fd5b50505050565b606060405180602001604052806000815250905090565b606061191782611194565b60006119216118f5565b90506000815111611941576040518060200160405280600081525061196c565b8061194b84611c0d565b60405160200161195c929190612d08565b6040516020818303038152906040525b915050919050565b60007f01ffc9a7000000000000000000000000000000000000000000000000000000007bffffffffffffffffffffffffffffffffffffffffffffffffffffffff1916827bffffffffffffffffffffffffffffffffffffffffffffffffffffffff1916149050919050565b60008073ffffffffffffffffffffffffffffffffffffffff16611a008361162e565b73ffffffffffffffffffffffffffffffffffffffff1614159050919050565b50505050565b50505050565b611a358383611cdb565b611a426000848484611a86565b611a81576040517f08c379a0000000000000000000000000000000000000000000000000000000008152600401611a789061323e565b60405180910390fd5b505050565b6000611aa78473ffffffffffffffffffffffffffffffffffffffff16611ef8565b15611c00578373ffffffffffffffffffffffffffffffffffffffff1663150b7a02611ad06111df565b8786866040518563ffffffff1660e01b8152600401611af294939291906132b3565b6020604051808303816000875af1925050508015611b2e57506040513d601f19601f82011682018060405250810190611b2b9190613314565b60015b611bb0573d8060008114611b5e576040519150601f19603f3d011682016040523d82523d6000602084013e611b63565b606091505b506000815103611ba8576040517f08c379a0000000000000000000000000000000000000000000000000000000008152600401611b9f9061323e565b60405180910390fd5b805181602001fd5b63150b7a0260e01b7bffffffffffffffffffffffffffffffffffffffffffffffffffffffff1916817bffffffffffffffffffffffffffffffffffffffffffffffffffffffff191614915050611c05565b600190505b949350505050565b606060006001611c1c84611f1b565b01905060008167ffffffffffffffff811115611c3b57611c3a6123a4565b5b6040519080825280601f01601f191660200182016040528015611c6d5781602001600182028036833780820191505090505b509050600082602001820190505b600115611cd0578080600190039150507f3031323334353637383961626364656600000000000000000000000000000000600a86061a8153600a8581611cc457611cc3613341565b5b04945060008503611c7b575b819350505050919050565b600073ffffffffffffffffffffffffffffffffffffffff168273ffffffffffffffffffffffffffffffffffffffff1603611d4a576040517f08c379a0000000000000000000000000000000000000000000000000000000008152600401611d41906133bc565b60405180910390fd5b611d53816119de565b15611d93576040517f08c379a0000000000000000000000000000000000000000000000000000000008152600401611d8a90613428565b60405180910390fd5b611da1600083836001611a1f565b611daa816119de565b15611dea576040517f08c379a0000000000000000000000000000000000000000000000000000000008152600401611de190613428565b60405180910390fd5b6001600360008473ffffffffffffffffffffffffffffffffffffffff1673ffffffffffffffffffffffffffffffffffffffff16815260200190815260200160002060008282540192505081905550816002600083815260200190815260200160002060006101000a81548173ffffffffffffffffffffffffffffffffffffffff021916908373ffffffffffffffffffffffffffffffffffffffff160217905550808273ffffffffffffffffffffffffffffffffffffffff16600073ffffffffffffffffffffffffffffffffffffffff167fddf252ad1be2c89b69c2b068fc378daa952ba7f163c4a11628f55a4df523b3ef60405160405180910390a4611ef4600083836001611a25565b5050565b6000808273ffffffffffffffffffffffffffffffffffffffff163b119050919050565b600080600090507a184f03e93ff9f4daa797ed6e38ed64bf6a1f0100000000000000008310611f79577a184f03e93ff9f4daa797ed6e38ed64bf6a1f0100000000000000008381611f6f57611f6e613341565b5b0492506040810190505b6d04ee2d6d415b85acef81000000008310611fb6576d04ee2d6d415b85acef81000000008381611fac57611fab613341565b5b0492506020810190505b662386f26fc100008310611fe557662386f26fc100008381611fdb57611fda613341565b5b0492506010810190505b6305f5e100831061200e576305f5e100838161200457612003613341565b5b0492506008810190505b612710831061203357612710838161202957612028613341565b5b0492506004810190505b60648310612056576064838161204c5761204b613341565b5b0492506002810190505b600a8310612065576001810190505b80915050919050565b6000604051905090565b600080fd5b600080fd5b60007fffffffff0000000000000000000000000000000000000000000000000000000082169050919050565b6120b781612082565b81146120c257600080fd5b50565b6000813590506120d4816120ae565b92915050565b6000602082840312156120f0576120ef612078565b5b60006120fe848285016120c5565b91505092915050565b60008115159050919050565b61211c81612107565b82525050565b60006020820190506121376000830184612113565b92915050565b600073ffffffffffffffffffffffffffffffffffffffff82169050919050565b60006121688261213d565b9050919050565b6121788161215d565b811461218357600080fd5b50565b6000813590506121958161216f565b92915050565b6000602082840312156121b1576121b0612078565b5b60006121bf84828501612186565b91505092915050565b600081519050919050565b600082825260208201905092915050565b60005b838110156122025780820151818401526020810190506121e7565b60008484015250505050565b6000601f19601f8301169050919050565b600061222a826121c8565b61223481856121d3565b93506122448185602086016121e4565b61224d8161220e565b840191505092915050565b60006020820190508181036000830152612272818461221f565b905092915050565b6000819050919050565b61228d8161227a565b811461229857600080fd5b50565b6000813590506122aa81612284565b92915050565b6000602082840312156122c6576122c5612078565b5b60006122d48482850161229b565b91505092915050565b6122e68161215d565b82525050565b600060208201905061230160008301846122dd565b92915050565b6000806040838503121561231e5761231d612078565b5b600061232c85828601612186565b925050602061233d8582860161229b565b9150509250929050565b6000806000606084860312156123605761235f612078565b5b600061236e86828701612186565b935050602061237f86828701612186565b92505060406123908682870161229b565b9150509250925092565b600080fd5b600080fd5b7f4e487b7100000000000000000000000000000000000000000000000000000000600052604160045260246000fd5b6123dc8261220e565b810181811067ffffffffffffffff821117156123fb576123fa6123a4565b5b80604052505050565b600061240e61206e565b905061241a82826123d3565b919050565b600067ffffffffffffffff82111561243a576124396123a4565b5b6124438261220e565b9050602081019050919050565b82818337600083830152505050565b600061247261246d8461241f565b612404565b90508281526020810184848401111561248e5761248d61239f565b5b612499848285612450565b509392505050565b600082601f8301126124b6576124b561239a565b5b81356124c684826020860161245f565b91505092915050565b600080604083850312156124e6576124e5612078565b5b60006124f485828601612186565b925050602083013567ffffffffffffffff8111156125155761251461207d565b5b612521858286016124a1565b9150509250929050565b6125348161227a565b82525050565b600060208201905061254f600083018461252b565b92915050565b61255e81612107565b811461256957600080fd5b50565b60008135905061257b81612555565b92915050565b6000806040838503121561259857612597612078565b5b60006125a685828601612186565b92505060206125b78582860161256c565b9150509250929050565b600060ff82169050919050565b6125d7816125c1565b82525050565b60006020820190506125f260008301846125ce565b92915050565b600067ffffffffffffffff821115612613576126126123a4565b5b61261c8261220e565b9050602081019050919050565b600061263c612637846125f8565b612404565b9050828152602081018484840111156126585761265761239f565b5b612663848285612450565b509392505050565b600082601f8301126126805761267f61239a565b5b8135612690848260208601612629565b91505092915050565b600080600080608085870312156126b3576126b2612078565b5b60006126c187828801612186565b94505060206126d287828801612186565b93505060406126e38782880161229b565b925050606085013567ffffffffffffffff8111156127045761270361207d565b5b6127108782880161266b565b91505092959194509250565b6000806040838503121561273357612732612078565b5b600061274185828601612186565b925050602061275285828601612186565b9150509250929050565b7f4e487b7100000000000000000000000000000000000000000000000000000000600052602260045260246000fd5b600060028204905060018216806127a357607f821691505b6020821081036127b6576127b561275c565b5b50919050565b7f4552433732313a20617070726f76616c20746f2063757272656e74206f776e6560008201527f7200000000000000000000000000000000000000000000000000000000000000602082015250565b60006128186021836121d3565b9150612823826127bc565b604082019050919050565b600060208201905081810360008301526128478161280b565b9050919050565b7f4552433732313a20617070726f76652063616c6c6572206973206e6f7420746f60008201527f6b656e206f776e6572206f7220617070726f76656420666f7220616c6c000000602082015250565b60006128aa603d836121d3565b91506128b58261284e565b604082019050919050565b600060208201905081810360008301526128d98161289d565b9050919050565b7f4552433732313a2063616c6c6572206973206e6f7420746f6b656e206f776e6560008201527f72206f7220617070726f76656400000000000000000000000000000000000000602082015250565b600061293c602d836121d3565b9150612947826128e0565b604082019050919050565b6000602082019050818103600083015261296b8161292f565b9050919050565b7f4552433732313a20696e76616c696420746f6b656e2049440000000000000000600082015250565b60006129a86018836121d3565b91506129b382612972565b602082019050919050565b600060208201905081810360008301526129d78161299b565b9050919050565b7f596f7520617265206e6f742061646d696e000000000000000000000000000000600082015250565b6000612a146011836121d3565b9150612a1f826129de565b602082019050919050565b60006020820190508181036000830152612a4381612a07565b9050919050565b7f4e487b7100000000000000000000000000000000000000000000000000000000600052601160045260246000fd5b6000612a848261227a565b91507fffffffffffffffffffffffffffffffffffffffffffffffffffffffffffffffff8203612ab657612ab5612a4a565b5b600182019050919050565b6000612acc826125c1565b9150612ad7836125c1565b9250828201905060ff811115612af057612aef612a4a565b5b92915050565b7f596f7520617265206e6f7420746865206f776e65720000000000000000000000600082015250565b6000612b2c6015836121d3565b9150612b3782612af6565b602082019050919050565b60006020820190508181036000830152612b5b81612b1f565b9050919050565b7f496e76616c696420416464726573730000000000000000000000000000000000600082015250565b6000612b98600f836121d3565b9150612ba382612b62565b602082019050919050565b60006020820190508181036000830152612bc781612b8b565b9050919050565b7f4164647265737320697320616c726561647920616e2041646d696e0000000000600082015250565b6000612c04601b836121d3565b9150612c0f82612bce565b602082019050919050565b60006020820190508181036000830152612c3381612bf7565b9050919050565b7f4552433732313a2061646472657373207a65726f206973206e6f74206120766160008201527f6c6964206f776e65720000000000000000000000000000000000000000000000602082015250565b6000612c966029836121d3565b9150612ca182612c3a565b604082019050919050565b60006020820190508181036000830152612cc581612c89565b9050919050565b600081905092915050565b6000612ce2826121c8565b612cec8185612ccc565b9350612cfc8185602086016121e4565b80840191505092915050565b6000612d148285612cd7565b9150612d208284612cd7565b91508190509392505050565b7f4552433732313a207472616e736665722066726f6d20696e636f72726563742060008201527f6f776e6572000000000000000000000000000000000000000000000000000000602082015250565b6000612d886025836121d3565b9150612d9382612d2c565b604082019050919050565b60006020820190508181036000830152612db781612d7b565b9050919050565b7f4552433732313a207472616e7366657220746f20746865207a65726f2061646460008201527f7265737300000000000000000000000000000000000000000000000000000000602082015250565b6000612e1a6024836121d3565b9150612e2582612dbe565b604082019050919050565b60006020820190508181036000830152612e4981612e0d565b9050919050565b7f45524337323155524953746f726167653a2055524920736574206f66206e6f6e60008201527f6578697374656e7420746f6b656e000000000000000000000000000000000000602082015250565b6000612eac602e836121d3565b9150612eb782612e50565b604082019050919050565b60006020820190508181036000830152612edb81612e9f565b9050919050565b60008190508160005260206000209050919050565b60006020601f8301049050919050565b600082821b905092915050565b600060088302612f447fffffffffffffffffffffffffffffffffffffffffffffffffffffffffffffffff82612f07565b612f4e8683612f07565b95508019841693508086168417925050509392505050565b6000819050919050565b6000612f8b612f86612f818461227a565b612f66565b61227a565b9050919050565b6000819050919050565b612fa583612f70565b612fb9612fb182612f92565b848454612f14565b825550505050565b600090565b612fce612fc1565b612fd9818484612f9c565b505050565b5b81811015612ffd57612ff2600082612fc6565b600181019050612fdf565b5050565b601f8211156130425761301381612ee2565b61301c84612ef7565b8101602085101561302b578190505b61303f61303785612ef7565b830182612fde565b50505b505050565b600082821c905092915050565b600061306560001984600802613047565b1980831691505092915050565b600061307e8383613054565b9150826002028217905092915050565b613097826121c8565b67ffffffffffffffff8111156130b0576130af6123a4565b5b6130ba825461278b565b6130c5828285613001565b600060209050601f8311600181146130f857600084156130e6578287015190505b6130f08582613072565b865550613158565b601f19841661310686612ee2565b60005b8281101561312e57848901518255600182019150602085019450602081019050613109565b8683101561314b5784890151613147601f891682613054565b8355505b6001600288020188555050505b505050505050565b7f4552433732313a20617070726f766520746f2063616c6c657200000000000000600082015250565b60006131966019836121d3565b91506131a182613160565b602082019050919050565b600060208201905081810360008301526131c581613189565b9050919050565b7f4552433732313a207472616e7366657220746f206e6f6e20455243373231526560008201527f63656976657220696d706c656d656e7465720000000000000000000000000000602082015250565b60006132286032836121d3565b9150613233826131cc565b604082019050919050565b600060208201905081810360008301526132578161321b565b9050919050565b600081519050919050565b600082825260208201905092915050565b60006132858261325e565b61328f8185613269565b935061329f8185602086016121e4565b6132a88161220e565b840191505092915050565b60006080820190506132c860008301876122dd565b6132d560208301866122dd565b6132e2604083018561252b565b81810360608301526132f4818461327a565b905095945050505050565b60008151905061330e816120ae565b92915050565b60006020828403121561332a57613329612078565b5b6000613338848285016132ff565b91505092915050565b7f4e487b7100000000000000000000000000000000000000000000000000000000600052601260045260246000fd5b7f4552433732313a206d696e7420746f20746865207a65726f2061646472657373600082015250565b60006133a66020836121d3565b91506133b182613370565b602082019050919050565b600060208201905081810360008301526133d581613399565b9050919050565b7f4552433732313a20746f6b656e20616c7265616479206d696e74656400000000600082015250565b6000613412601c836121d3565b915061341d826133dc565b602082019050919050565b6000602082019050818103600083015261344181613405565b905091905056fea26469706673582212201d8caca02c7d70bd97acea180256d48b760714e91aaed2502891dab03a5431d764736f6c63430008120033",
  "linkReferences": {},
  "deployedLinkReferences": {}
}