{
  "_format": "hh-sol-artifact-1",
  "contractName": "GeekNFT",
  "sourceName": "contracts/GeekNFT.sol",
  "abi": [
    {
      "inputs": [],
      "stateMutability": "nonpayable",
      "type": "constructor"
    },
    {
      "anonymous": false,
      "inputs": [
        {
          "indexed": true,
          "internalType": "address",
          "name": "owner",
          "type": "address"
        },
        {
          "indexed": true,
          "internalType": "address",
          "name": "approved",
          "type": "address"
        },
        {
          "indexed": true,
          "internalType": "uint256",
          "name": "tokenId",
          "type": "uint256"
        }
      ],
      "name": "Approval",
      "type": "event"
    },
    {
      "anonymous": false,
      "inputs": [
        {
          "indexed": true,
          "internalType": "address",
          "name": "owner",
          "type": "address"
        },
        {
          "indexed": true,
          "internalType": "address",
          "name": "operator",
          "type": "address"
        },
        {
          "indexed": false,
          "internalType": "bool",
          "name": "approved",
          "type": "bool"
        }
      ],
      "name": "ApprovalForAll",
      "type": "event"
    },
    {
      "anonymous": false,
      "inputs": [
        {
          "indexed": false,
          "internalType": "uint256",
          "name": "_fromTokenId",
          "type": "uint256"
        },
        {
          "indexed": false,
          "internalType": "uint256",
          "name": "_toTokenId",
          "type": "uint256"
        }
      ],
      "name": "BatchMetadataUpdate",
      "type": "event"
    },
    {
      "anonymous": false,
      "inputs": [
        {
          "indexed": false,
          "internalType": "uint256",
          "name": "_tokenId",
          "type": "uint256"
        }
      ],
      "name": "MetadataUpdate",
      "type": "event"
    },
    {
      "anonymous": false,
      "inputs": [
        {
          "indexed": true,
          "internalType": "address",
          "name": "from",
          "type": "address"
        },
        {
          "indexed": true,
          "internalType": "address",
          "name": "to",
          "type": "address"
        },
        {
          "indexed": true,
          "internalType": "uint256",
          "name": "tokenId",
          "type": "uint256"
        }
      ],
      "name": "Transfer",
      "type": "event"
    },
    {
      "inputs": [
        {
          "internalType": "address",
          "name": "_admin",
          "type": "address"
        }
      ],
      "name": "addAdmin",
      "outputs": [],
      "stateMutability": "nonpayable",
      "type": "function"
    },
    {
      "inputs": [
        {
          "internalType": "address",
          "name": "",
          "type": "address"
        }
      ],
      "name": "adminStatus",
      "outputs": [
        {
          "internalType": "bool",
          "name": "",
          "type": "bool"
        }
      ],
      "stateMutability": "view",
      "type": "function"
    },
    {
      "inputs": [
        {
          "internalType": "uint256",
          "name": "",
          "type": "uint256"
        }
      ],
      "name": "admins",
      "outputs": [
        {
          "internalType": "address",
          "name": "",
          "type": "address"
        }
      ],
      "stateMutability": "view",
      "type": "function"
    },
    {
      "inputs": [
        {
          "internalType": "address",
          "name": "to",
          "type": "address"
        },
        {
          "internalType": "uint256",
          "name": "tokenId",
          "type": "uint256"
        }
      ],
      "name": "approve",
      "outputs": [],
      "stateMutability": "nonpayable",
      "type": "function"
    },
    {
      "inputs": [
        {
          "internalType": "address",
          "name": "owner",
          "type": "address"
        }
      ],
      "name": "balanceOf",
      "outputs": [
        {
          "internalType": "uint256",
          "name": "",
          "type": "uint256"
        }
      ],
      "stateMutability": "view",
      "type": "function"
    },
    {
      "inputs": [
        {
          "internalType": "uint256",
          "name": "tokenId",
          "type": "uint256"
        }
      ],
      "name": "getApproved",
      "outputs": [
        {
          "internalType": "address",
          "name": "",
          "type": "address"
        }
      ],
      "stateMutability": "view",
      "type": "function"
    },
    {
      "inputs": [
        {
          "internalType": "address",
          "name": "owner",
          "type": "address"
        },
        {
          "internalType": "address",
          "name": "operator",
          "type": "address"
        }
      ],
      "name": "isApprovedForAll",
      "outputs": [
        {
          "internalType": "bool",
          "name": "",
          "type": "bool"
        }
      ],
      "stateMutability": "view",
      "type": "function"
    },
    {
      "inputs": [],
      "name": "name",
      "outputs": [
        {
          "internalType": "string",
          "name": "",
          "type": "string"
        }
      ],
      "stateMutability": "view",
      "type": "function"
    },
    {
      "inputs": [],
      "name": "owner",
      "outputs": [
        {
          "internalType": "address",
          "name": "",
          "type": "address"
        }
      ],
      "stateMutability": "view",
      "type": "function"
    },
    {
      "inputs": [
        {
          "internalType": "uint256",
          "name": "tokenId",
          "type": "uint256"
        }
      ],
      "name": "ownerOf",
      "outputs": [
        {
          "internalType": "address",
          "name": "",
          "type": "address"
        }
      ],
      "stateMutability": "view",
      "type": "function"
    },
    {
      "inputs": [
        {
          "internalType": "address",
          "name": "from",
          "type": "address"
        },
        {
          "internalType": "address",
          "name": "to",
          "type": "address"
        },
        {
          "internalType": "uint256",
          "name": "tokenId",
          "type": "uint256"
        }
      ],
      "name": "safeTransferFrom",
      "outputs": [],
      "stateMutability": "nonpayable",
      "type": "function"
    },
    {
      "inputs": [
        {
          "internalType": "address",
          "name": "from",
          "type": "address"
        },
        {
          "internalType": "address",
          "name": "to",
          "type": "address"
        },
        {
          "internalType": "uint256",
          "name": "tokenId",
          "type": "uint256"
        },
        {
          "internalType": "bytes",
          "name": "data",
          "type": "bytes"
        }
      ],
      "name": "safeTransferFrom",
      "outputs": [],
      "stateMutability": "nonpayable",
      "type": "function"
    },
    {
      "inputs": [
        {
          "internalType": "address[]",
          "name": "students",
          "type": "address[]"
        },
        {
          "internalType": "string",
          "name": "_certificateURI",
          "type": "string"
        }
      ],
      "name": "sendCertificate",
      "outputs": [],
      "stateMutability": "nonpayable",
      "type": "function"
    },
    {
      "inputs": [
        {
          "internalType": "address",
          "name": "operator",
          "type": "address"
        },
        {
          "internalType": "bool",
          "name": "approved",
          "type": "bool"
        }
      ],
      "name": "setApprovalForAll",
      "outputs": [],
      "stateMutability": "nonpayable",
      "type": "function"
    },
    {
      "inputs": [
        {
          "internalType": "address",
          "name": "",
          "type": "address"
        }
      ],
      "name": "studentCertificateStatus",
      "outputs": [
        {
          "internalType": "bool",
          "name": "",
          "type": "bool"
        }
      ],
      "stateMutability": "view",
      "type": "function"
    },
    {
      "inputs": [
        {
          "internalType": "address",
          "name": "",
          "type": "address"
        }
      ],
      "name": "studentCertificates",
      "outputs": [
        {
          "internalType": "uint8",
          "name": "",
          "type": "uint8"
        }
      ],
      "stateMutability": "view",
      "type": "function"
    },
    {
      "inputs": [
        {
          "internalType": "bytes4",
          "name": "interfaceId",
          "type": "bytes4"
        }
      ],
      "name": "supportsInterface",
      "outputs": [
        {
          "internalType": "bool",
          "name": "",
          "type": "bool"
        }
      ],
      "stateMutability": "view",
      "type": "function"
    },
    {
      "inputs": [],
      "name": "symbol",
      "outputs": [
        {
          "internalType": "string",
          "name": "",
          "type": "string"
        }
      ],
      "stateMutability": "view",
      "type": "function"
    },
    {
      "inputs": [
        {
          "internalType": "uint256",
          "name": "tokenId",
          "type": "uint256"
        }
      ],
      "name": "tokenURI",
      "outputs": [
        {
          "internalType": "string",
          "name": "",
          "type": "string"
        }
      ],
      "stateMutability": "view",
      "type": "function"
    },
    {
      "inputs": [
        {
          "internalType": "address",
          "name": "from",
          "type": "address"
        },
        {
          "internalType": "address",
          "name": "to",
          "type": "address"
        },
        {
          "internalType": "uint256",
          "name": "tokenId",
          "type": "uint256"
        }
      ],
      "name": "transferFrom",
      "outputs": [],
      "stateMutability": "nonpayable",
      "type": "function"
    }
  ],
  "bytecode": "0x60806040523480156200001157600080fd5b506040518060400160405280600781526020017f4745454b4e4654000000000000000000000000000000000000000000000000008152506040518060400160405280600481526020017f474e46540000000000000000000000000000000000000000000000000000000081525081600090816200008f919062000420565b508060019081620000a1919062000420565b50505033600760006101000a81548173ffffffffffffffffffffffffffffffffffffffff021916908373ffffffffffffffffffffffffffffffffffffffff1602179055506008339080600181540180825580915050600190039060005260206000200160009091909190916101000a81548173ffffffffffffffffffffffffffffffffffffffff021916908373ffffffffffffffffffffffffffffffffffffffff1602179055506001600c60003373ffffffffffffffffffffffffffffffffffffffff1673ffffffffffffffffffffffffffffffffffffffff16815260200190815260200160002060006101000a81548160ff02191690831515021790555062000507565b600081519050919050565b7f4e487b7100000000000000000000000000000000000000000000000000000000600052604160045260246000fd5b7f4e487b7100000000000000000000000000000000000000000000000000000000600052602260045260246000fd5b600060028204905060018216806200022857607f821691505b6020821081036200023e576200023d620001e0565b5b50919050565b60008190508160005260206000209050919050565b60006020601f8301049050919050565b600082821b905092915050565b600060088302620002a87fffffffffffffffffffffffffffffffffffffffffffffffffffffffffffffffff8262000269565b620002b4868362000269565b95508019841693508086168417925050509392505050565b6000819050919050565b6000819050919050565b600062000301620002fb620002f584620002cc565b620002d6565b620002cc565b9050919050565b6000819050919050565b6200031d83620002e0565b620003356200032c8262000308565b84845462000276565b825550505050565b600090565b6200034c6200033d565b6200035981848462000312565b505050565b5b8181101562000381576200037560008262000342565b6001810190506200035f565b5050565b601f821115620003d0576200039a8162000244565b620003a58462000259565b81016020851015620003b5578190505b620003cd620003c48562000259565b8301826200035e565b50505b505050565b600082821c905092915050565b6000620003f560001984600802620003d5565b1980831691505092915050565b6000620004108383620003e2565b9150826002028217905092915050565b6200042b82620001a6565b67ffffffffffffffff811115620004475762000446620001b1565b5b6200045382546200020f565b6200046082828562000385565b600060209050601f83116001811462000498576000841562000483578287015190505b6200048f858262000402565b865550620004ff565b601f198416620004a88662000244565b60005b82811015620004d257848901518255600182019150602085019450602081019050620004ab565b86831015620004f25784890151620004ee601f891682620003e2565b8355505b6001600288020188555050505b505050505050565b61359e80620005176000396000f3fe608060405234801561001057600080fd5b506004361061012c5760003560e01c806370480275116100ad578063a3daddc511610071578063a3daddc514610367578063b88d4fde14610397578063c87b56dd146103b3578063d3881206146103e3578063e985e9c5146103ff5761012c565b806370480275146102c357806370a08231146102df5780638da5cb5b1461030f57806395d89b411461032d578063a22cb4651461034b5761012c565b806314bfd6d0116100f457806314bfd6d0146101fb57806323b872dd1461022b5780633e4a89d11461024757806342842e0e146102775780636352211e146102935761012c565b806301ffc9a71461013157806303b3e67a1461016157806306fdde0314610191578063081812fc146101af578063095ea7b3146101df575b600080fd5b61014b600480360381019061014691906120e7565b61042f565b604051610158919061212f565b60405180910390f35b61017b600480360381019061017691906121a8565b610490565b604051610188919061212f565b60405180910390f35b6101996104b0565b6040516101a69190612265565b60405180910390f35b6101c960048036038101906101c491906122bd565b610542565b6040516101d691906122f9565b60405180910390f35b6101f960048036038101906101f49190612314565b610588565b005b610215600480360381019061021091906122bd565b61069f565b60405161022291906122f9565b60405180910390f35b61024560048036038101906102409190612354565b6106de565b005b610261600480360381019061025c91906121a8565b61073e565b60405161026e919061212f565b60405180910390f35b610291600480360381019061028c9190612354565b61075e565b005b6102ad60048036038101906102a891906122bd565b61077e565b6040516102ba91906122f9565b60405180910390f35b6102dd60048036038101906102d891906121a8565b610804565b005b6102f960048036038101906102f491906121a8565b610a4e565b60405161030691906123b6565b60405180910390f35b610317610b05565b60405161032491906122f9565b60405180910390f35b610335610b2b565b6040516103429190612265565b60405180910390f35b610365600480360381019061036091906123fd565b610bbd565b005b610381600480360381019061037c91906121a8565b610bd3565b60405161038e9190612459565b60405180910390f35b6103b160048036038101906103ac91906125a9565b610bf3565b005b6103cd60048036038101906103c891906122bd565b610c55565b6040516103da9190612265565b60405180910390f35b6103fd60048036038101906103f89190612795565b610d67565b005b6104196004803603810190610414919061280d565b61102b565b604051610426919061212f565b60405180910390f35b6000634906490660e01b7bffffffffffffffffffffffffffffffffffffffffffffffffffffffff1916827bffffffffffffffffffffffffffffffffffffffffffffffffffffffff191614806104895750610488826110bf565b5b9050919050565b600b6020528060005260406000206000915054906101000a900460ff1681565b6060600080546104bf9061287c565b80601f01602080910402602001604051908101604052809291908181526020018280546104eb9061287c565b80156105385780601f1061050d57610100808354040283529160200191610538565b820191906000526020600020905b81548152906001019060200180831161051b57829003601f168201915b5050505050905090565b600061054d826111a1565b6004600083815260200190815260200160002060009054906101000a900473ffffffffffffffffffffffffffffffffffffffff169050919050565b60006105938261077e565b90508073ffffffffffffffffffffffffffffffffffffffff168373ffffffffffffffffffffffffffffffffffffffff1603610603576040517f08c379a00000000000000000000000000000000000000000000000000000000081526004016105fa9061291f565b60405180910390fd5b8073ffffffffffffffffffffffffffffffffffffffff166106226111ec565b73ffffffffffffffffffffffffffffffffffffffff16148061065157506106508161064b6111ec565b61102b565b5b610690576040517f08c379a0000000000000000000000000000000000000000000000000000000008152600401610687906129b1565b60405180910390fd5b61069a83836111f4565b505050565b600881815481106106af57600080fd5b906000526020600020016000915054906101000a900473ffffffffffffffffffffffffffffffffffffffff1681565b6106ef6106e96111ec565b826112ad565b61072e576040517f08c379a000000000000000000000000000000000000000000000000000000000815260040161072590612a43565b60405180910390fd5b610739838383611342565b505050565b600c6020528060005260406000206000915054906101000a900460ff1681565b61077983838360405180602001604052806000815250610bf3565b505050565b60008061078a8361163b565b9050600073ffffffffffffffffffffffffffffffffffffffff168173ffffffffffffffffffffffffffffffffffffffff16036107fb576040517f08c379a00000000000000000000000000000000000000000000000000000000081526004016107f290612aaf565b60405180910390fd5b80915050919050565b3373ffffffffffffffffffffffffffffffffffffffff16600760009054906101000a900473ffffffffffffffffffffffffffffffffffffffff1673ffffffffffffffffffffffffffffffffffffffff1614610894576040517f08c379a000000000000000000000000000000000000000000000000000000000815260040161088b90612b1b565b60405180910390fd5b600073ffffffffffffffffffffffffffffffffffffffff168173ffffffffffffffffffffffffffffffffffffffff1603610903576040517f08c379a00000000000000000000000000000000000000000000000000000000081526004016108fa90612b87565b60405180910390fd5b600c60008273ffffffffffffffffffffffffffffffffffffffff1673ffffffffffffffffffffffffffffffffffffffff16815260200190815260200160002060009054906101000a900460ff1615610990576040517f08c379a000000000000000000000000000000000000000000000000000000000815260040161098790612bf3565b60405180910390fd5b6008819080600181540180825580915050600190039060005260206000200160009091909190916101000a81548173ffffffffffffffffffffffffffffffffffffffff021916908373ffffffffffffffffffffffffffffffffffffffff1602179055506001600c60008373ffffffffffffffffffffffffffffffffffffffff1673ffffffffffffffffffffffffffffffffffffffff16815260200190815260200160002060006101000a81548160ff02191690831515021790555050565b60008073ffffffffffffffffffffffffffffffffffffffff168273ffffffffffffffffffffffffffffffffffffffff1603610abe576040517f08c379a0000000000000000000000000000000000000000000000000000000008152600401610ab590612c85565b60405180910390fd5b600360008373ffffffffffffffffffffffffffffffffffffffff1673ffffffffffffffffffffffffffffffffffffffff168152602001908152602001600020549050919050565b600760009054906101000a900473ffffffffffffffffffffffffffffffffffffffff1681565b606060018054610b3a9061287c565b80601f0160208091040260200160405190810160405280929190818152602001828054610b669061287c565b8015610bb35780601f10610b8857610100808354040283529160200191610bb3565b820191906000526020600020905b815481529060010190602001808311610b9657829003601f168201915b5050505050905090565b610bcf610bc86111ec565b8383611678565b5050565b600a6020528060005260406000206000915054906101000a900460ff1681565b610c04610bfe6111ec565b836112ad565b610c43576040517f08c379a0000000000000000000000000000000000000000000000000000000008152600401610c3a90612a43565b60405180910390fd5b610c4f848484846117e4565b50505050565b6060610c60826111a1565b6000600660008481526020019081526020016000208054610c809061287c565b80601f0160208091040260200160405190810160405280929190818152602001828054610cac9061287c565b8015610cf95780601f10610cce57610100808354040283529160200191610cf9565b820191906000526020600020905b815481529060010190602001808311610cdc57829003601f168201915b505050505090506000610d0a611840565b90506000815103610d1f578192505050610d62565b600082511115610d54578082604051602001610d3c929190612ce1565b60405160208183030381529060405292505050610d62565b610d5d84611857565b925050505b919050565b600c60003373ffffffffffffffffffffffffffffffffffffffff1673ffffffffffffffffffffffffffffffffffffffff16815260200190815260200160002060009054906101000a900460ff16610df3576040517f08c379a0000000000000000000000000000000000000000000000000000000008152600401610dea90612d51565b60405180910390fd5b60008251905060005b81811015611025576000600a6000868481518110610e1d57610e1c612d71565b5b602002602001015173ffffffffffffffffffffffffffffffffffffffff1673ffffffffffffffffffffffffffffffffffffffff16815260200190815260200160002060009054906101000a900460ff1660ff16141580610ec35750600073ffffffffffffffffffffffffffffffffffffffff16848281518110610ea357610ea2612d71565b5b602002602001015173ffffffffffffffffffffffffffffffffffffffff16145b6110125760096000815480929190610eda90612dcf565b91905055506001600a6000868481518110610ef857610ef7612d71565b5b602002602001015173ffffffffffffffffffffffffffffffffffffffff1673ffffffffffffffffffffffffffffffffffffffff16815260200190815260200160002060008282829054906101000a900460ff16610f559190612e17565b92506101000a81548160ff021916908360ff1602179055506001600b6000868481518110610f8657610f85612d71565b5b602002602001015173ffffffffffffffffffffffffffffffffffffffff1673ffffffffffffffffffffffffffffffffffffffff16815260200190815260200160002060006101000a81548160ff021916908315150217905550611005848281518110610ff557610ff4612d71565b5b60200260200101516009546118bf565b611011600954846118dd565b5b808061101d90612dcf565b915050610dfc565b50505050565b6000600560008473ffffffffffffffffffffffffffffffffffffffff1673ffffffffffffffffffffffffffffffffffffffff16815260200190815260200160002060008373ffffffffffffffffffffffffffffffffffffffff1673ffffffffffffffffffffffffffffffffffffffff16815260200190815260200160002060009054906101000a900460ff16905092915050565b60007f80ac58cd000000000000000000000000000000000000000000000000000000007bffffffffffffffffffffffffffffffffffffffffffffffffffffffff1916827bffffffffffffffffffffffffffffffffffffffffffffffffffffffff1916148061118a57507f5b5e139f000000000000000000000000000000000000000000000000000000007bffffffffffffffffffffffffffffffffffffffffffffffffffffffff1916827bffffffffffffffffffffffffffffffffffffffffffffffffffffffff1916145b8061119a575061119982611981565b5b9050919050565b6111aa816119eb565b6111e9576040517f08c379a00000000000000000000000000000000000000000000000000000000081526004016111e090612aaf565b60405180910390fd5b50565b600033905090565b816004600083815260200190815260200160002060006101000a81548173ffffffffffffffffffffffffffffffffffffffff021916908373ffffffffffffffffffffffffffffffffffffffff160217905550808273ffffffffffffffffffffffffffffffffffffffff166112678361077e565b73ffffffffffffffffffffffffffffffffffffffff167f8c5be1e5ebec7d5bd14f71427d1e84f3dd0314c0f7b2291e5b200ac8c7c3b92560405160405180910390a45050565b6000806112b98361077e565b90508073ffffffffffffffffffffffffffffffffffffffff168473ffffffffffffffffffffffffffffffffffffffff1614806112fb57506112fa818561102b565b5b8061133957508373ffffffffffffffffffffffffffffffffffffffff1661132184610542565b73ffffffffffffffffffffffffffffffffffffffff16145b91505092915050565b8273ffffffffffffffffffffffffffffffffffffffff166113628261077e565b73ffffffffffffffffffffffffffffffffffffffff16146113b8576040517f08c379a00000000000000000000000000000000000000000000000000000000081526004016113af90612ebe565b60405180910390fd5b600073ffffffffffffffffffffffffffffffffffffffff168273ffffffffffffffffffffffffffffffffffffffff1603611427576040517f08c379a000000000000000000000000000000000000000000000000000000000815260040161141e90612f50565b60405180910390fd5b6114348383836001611a2c565b8273ffffffffffffffffffffffffffffffffffffffff166114548261077e565b73ffffffffffffffffffffffffffffffffffffffff16146114aa576040517f08c379a00000000000000000000000000000000000000000000000000000000081526004016114a190612ebe565b60405180910390fd5b6004600082815260200190815260200160002060006101000a81549073ffffffffffffffffffffffffffffffffffffffff02191690556001600360008573ffffffffffffffffffffffffffffffffffffffff1673ffffffffffffffffffffffffffffffffffffffff168152602001908152602001600020600082825403925050819055506001600360008473ffffffffffffffffffffffffffffffffffffffff1673ffffffffffffffffffffffffffffffffffffffff16815260200190815260200160002060008282540192505081905550816002600083815260200190815260200160002060006101000a81548173ffffffffffffffffffffffffffffffffffffffff021916908373ffffffffffffffffffffffffffffffffffffffff160217905550808273ffffffffffffffffffffffffffffffffffffffff168473ffffffffffffffffffffffffffffffffffffffff167fddf252ad1be2c89b69c2b068fc378daa952ba7f163c4a11628f55a4df523b3ef60405160405180910390a46116368383836001611a32565b505050565b60006002600083815260200190815260200160002060009054906101000a900473ffffffffffffffffffffffffffffffffffffffff169050919050565b8173ffffffffffffffffffffffffffffffffffffffff168373ffffffffffffffffffffffffffffffffffffffff16036116e6576040517f08c379a00000000000000000000000000000000000000000000000000000000081526004016116dd90612fbc565b60405180910390fd5b80600560008573ffffffffffffffffffffffffffffffffffffffff1673ffffffffffffffffffffffffffffffffffffffff16815260200190815260200160002060008473ffffffffffffffffffffffffffffffffffffffff1673ffffffffffffffffffffffffffffffffffffffff16815260200190815260200160002060006101000a81548160ff0219169083151502179055508173ffffffffffffffffffffffffffffffffffffffff168373ffffffffffffffffffffffffffffffffffffffff167f17307eab39ab6107e8899845ad3d59bd9653f200f220920489ca2b5937696c31836040516117d7919061212f565b60405180910390a3505050565b6117ef848484611342565b6117fb84848484611a38565b61183a576040517f08c379a00000000000000000000000000000000000000000000000000000000081526004016118319061304e565b60405180910390fd5b50505050565b606060405180602001604052806000815250905090565b6060611862826111a1565b600061186c611840565b9050600081511161188c57604051806020016040528060008152506118b7565b8061189684611bbf565b6040516020016118a7929190612ce1565b6040516020818303038152906040525b915050919050565b6118d9828260405180602001604052806000815250611c8d565b5050565b6118e6826119eb565b611925576040517f08c379a000000000000000000000000000000000000000000000000000000000815260040161191c906130e0565b60405180910390fd5b8060066000848152602001908152602001600020908161194591906132ac565b507ff8e1a15aba9398e019f0b49df1a4fde98ee17ae345cb5f6b5e2c27f5033e8ce78260405161197591906123b6565b60405180910390a15050565b60007f01ffc9a7000000000000000000000000000000000000000000000000000000007bffffffffffffffffffffffffffffffffffffffffffffffffffffffff1916827bffffffffffffffffffffffffffffffffffffffffffffffffffffffff1916149050919050565b60008073ffffffffffffffffffffffffffffffffffffffff16611a0d8361163b565b73ffffffffffffffffffffffffffffffffffffffff1614159050919050565b50505050565b50505050565b6000611a598473ffffffffffffffffffffffffffffffffffffffff16611ce8565b15611bb2578373ffffffffffffffffffffffffffffffffffffffff1663150b7a02611a826111ec565b8786866040518563ffffffff1660e01b8152600401611aa494939291906133d3565b6020604051808303816000875af1925050508015611ae057506040513d601f19601f82011682018060405250810190611add9190613434565b60015b611b62573d8060008114611b10576040519150601f19603f3d011682016040523d82523d6000602084013e611b15565b606091505b506000815103611b5a576040517f08c379a0000000000000000000000000000000000000000000000000000000008152600401611b519061304e565b60405180910390fd5b805181602001fd5b63150b7a0260e01b7bffffffffffffffffffffffffffffffffffffffffffffffffffffffff1916817bffffffffffffffffffffffffffffffffffffffffffffffffffffffff191614915050611bb7565b600190505b949350505050565b606060006001611bce84611d0b565b01905060008167ffffffffffffffff811115611bed57611bec61247e565b5b6040519080825280601f01601f191660200182016040528015611c1f5781602001600182028036833780820191505090505b509050600082602001820190505b600115611c82578080600190039150507f3031323334353637383961626364656600000000000000000000000000000000600a86061a8153600a8581611c7657611c75613461565b5b04945060008503611c2d575b819350505050919050565b611c978383611e5e565b611ca46000848484611a38565b611ce3576040517f08c379a0000000000000000000000000000000000000000000000000000000008152600401611cda9061304e565b60405180910390fd5b505050565b6000808273ffffffffffffffffffffffffffffffffffffffff163b119050919050565b600080600090507a184f03e93ff9f4daa797ed6e38ed64bf6a1f0100000000000000008310611d69577a184f03e93ff9f4daa797ed6e38ed64bf6a1f0100000000000000008381611d5f57611d5e613461565b5b0492506040810190505b6d04ee2d6d415b85acef81000000008310611da6576d04ee2d6d415b85acef81000000008381611d9c57611d9b613461565b5b0492506020810190505b662386f26fc100008310611dd557662386f26fc100008381611dcb57611dca613461565b5b0492506010810190505b6305f5e1008310611dfe576305f5e1008381611df457611df3613461565b5b0492506008810190505b6127108310611e23576127108381611e1957611e18613461565b5b0492506004810190505b60648310611e465760648381611e3c57611e3b613461565b5b0492506002810190505b600a8310611e55576001810190505b80915050919050565b600073ffffffffffffffffffffffffffffffffffffffff168273ffffffffffffffffffffffffffffffffffffffff1603611ecd576040517f08c379a0000000000000000000000000000000000000000000000000000000008152600401611ec4906134dc565b60405180910390fd5b611ed6816119eb565b15611f16576040517f08c379a0000000000000000000000000000000000000000000000000000000008152600401611f0d90613548565b60405180910390fd5b611f24600083836001611a2c565b611f2d816119eb565b15611f6d576040517f08c379a0000000000000000000000000000000000000000000000000000000008152600401611f6490613548565b60405180910390fd5b6001600360008473ffffffffffffffffffffffffffffffffffffffff1673ffffffffffffffffffffffffffffffffffffffff16815260200190815260200160002060008282540192505081905550816002600083815260200190815260200160002060006101000a81548173ffffffffffffffffffffffffffffffffffffffff021916908373ffffffffffffffffffffffffffffffffffffffff160217905550808273ffffffffffffffffffffffffffffffffffffffff16600073ffffffffffffffffffffffffffffffffffffffff167fddf252ad1be2c89b69c2b068fc378daa952ba7f163c4a11628f55a4df523b3ef60405160405180910390a4612077600083836001611a32565b5050565b6000604051905090565b600080fd5b600080fd5b60007fffffffff0000000000000000000000000000000000000000000000000000000082169050919050565b6120c48161208f565b81146120cf57600080fd5b50565b6000813590506120e1816120bb565b92915050565b6000602082840312156120fd576120fc612085565b5b600061210b848285016120d2565b91505092915050565b60008115159050919050565b61212981612114565b82525050565b60006020820190506121446000830184612120565b92915050565b600073ffffffffffffffffffffffffffffffffffffffff82169050919050565b60006121758261214a565b9050919050565b6121858161216a565b811461219057600080fd5b50565b6000813590506121a28161217c565b92915050565b6000602082840312156121be576121bd612085565b5b60006121cc84828501612193565b91505092915050565b600081519050919050565b600082825260208201905092915050565b60005b8381101561220f5780820151818401526020810190506121f4565b60008484015250505050565b6000601f19601f8301169050919050565b6000612237826121d5565b61224181856121e0565b93506122518185602086016121f1565b61225a8161221b565b840191505092915050565b6000602082019050818103600083015261227f818461222c565b905092915050565b6000819050919050565b61229a81612287565b81146122a557600080fd5b50565b6000813590506122b781612291565b92915050565b6000602082840312156122d3576122d2612085565b5b60006122e1848285016122a8565b91505092915050565b6122f38161216a565b82525050565b600060208201905061230e60008301846122ea565b92915050565b6000806040838503121561232b5761232a612085565b5b600061233985828601612193565b925050602061234a858286016122a8565b9150509250929050565b60008060006060848603121561236d5761236c612085565b5b600061237b86828701612193565b935050602061238c86828701612193565b925050604061239d868287016122a8565b9150509250925092565b6123b081612287565b82525050565b60006020820190506123cb60008301846123a7565b92915050565b6123da81612114565b81146123e557600080fd5b50565b6000813590506123f7816123d1565b92915050565b6000806040838503121561241457612413612085565b5b600061242285828601612193565b9250506020612433858286016123e8565b9150509250929050565b600060ff82169050919050565b6124538161243d565b82525050565b600060208201905061246e600083018461244a565b92915050565b600080fd5b600080fd5b7f4e487b7100000000000000000000000000000000000000000000000000000000600052604160045260246000fd5b6124b68261221b565b810181811067ffffffffffffffff821117156124d5576124d461247e565b5b80604052505050565b60006124e861207b565b90506124f482826124ad565b919050565b600067ffffffffffffffff8211156125145761251361247e565b5b61251d8261221b565b9050602081019050919050565b82818337600083830152505050565b600061254c612547846124f9565b6124de565b90508281526020810184848401111561256857612567612479565b5b61257384828561252a565b509392505050565b600082601f8301126125905761258f612474565b5b81356125a0848260208601612539565b91505092915050565b600080600080608085870312156125c3576125c2612085565b5b60006125d187828801612193565b94505060206125e287828801612193565b93505060406125f3878288016122a8565b925050606085013567ffffffffffffffff8111156126145761261361208a565b5b6126208782880161257b565b91505092959194509250565b600067ffffffffffffffff8211156126475761264661247e565b5b602082029050602081019050919050565b600080fd5b600061267061266b8461262c565b6124de565b9050808382526020820190506020840283018581111561269357612692612658565b5b835b818110156126bc57806126a88882612193565b845260208401935050602081019050612695565b5050509392505050565b600082601f8301126126db576126da612474565b5b81356126eb84826020860161265d565b91505092915050565b600067ffffffffffffffff82111561270f5761270e61247e565b5b6127188261221b565b9050602081019050919050565b6000612738612733846126f4565b6124de565b90508281526020810184848401111561275457612753612479565b5b61275f84828561252a565b509392505050565b600082601f83011261277c5761277b612474565b5b813561278c848260208601612725565b91505092915050565b600080604083850312156127ac576127ab612085565b5b600083013567ffffffffffffffff8111156127ca576127c961208a565b5b6127d6858286016126c6565b925050602083013567ffffffffffffffff8111156127f7576127f661208a565b5b61280385828601612767565b9150509250929050565b6000806040838503121561282457612823612085565b5b600061283285828601612193565b925050602061284385828601612193565b9150509250929050565b7f4e487b7100000000000000000000000000000000000000000000000000000000600052602260045260246000fd5b6000600282049050600182168061289457607f821691505b6020821081036128a7576128a661284d565b5b50919050565b7f4552433732313a20617070726f76616c20746f2063757272656e74206f776e6560008201527f7200000000000000000000000000000000000000000000000000000000000000602082015250565b60006129096021836121e0565b9150612914826128ad565b604082019050919050565b60006020820190508181036000830152612938816128fc565b9050919050565b7f4552433732313a20617070726f76652063616c6c6572206973206e6f7420746f60008201527f6b656e206f776e6572206f7220617070726f76656420666f7220616c6c000000602082015250565b600061299b603d836121e0565b91506129a68261293f565b604082019050919050565b600060208201905081810360008301526129ca8161298e565b9050919050565b7f4552433732313a2063616c6c6572206973206e6f7420746f6b656e206f776e6560008201527f72206f7220617070726f76656400000000000000000000000000000000000000602082015250565b6000612a2d602d836121e0565b9150612a38826129d1565b604082019050919050565b60006020820190508181036000830152612a5c81612a20565b9050919050565b7f4552433732313a20696e76616c696420746f6b656e2049440000000000000000600082015250565b6000612a996018836121e0565b9150612aa482612a63565b602082019050919050565b60006020820190508181036000830152612ac881612a8c565b9050919050565b7f596f7520617265206e6f7420746865206f776e65720000000000000000000000600082015250565b6000612b056015836121e0565b9150612b1082612acf565b602082019050919050565b60006020820190508181036000830152612b3481612af8565b9050919050565b7f496e76616c696420416464726573730000000000000000000000000000000000600082015250565b6000612b71600f836121e0565b9150612b7c82612b3b565b602082019050919050565b60006020820190508181036000830152612ba081612b64565b9050919050565b7f4164647265737320697320616c726561647920616e2041646d696e0000000000600082015250565b6000612bdd601b836121e0565b9150612be882612ba7565b602082019050919050565b60006020820190508181036000830152612c0c81612bd0565b9050919050565b7f4552433732313a2061646472657373207a65726f206973206e6f74206120766160008201527f6c6964206f776e65720000000000000000000000000000000000000000000000602082015250565b6000612c6f6029836121e0565b9150612c7a82612c13565b604082019050919050565b60006020820190508181036000830152612c9e81612c62565b9050919050565b600081905092915050565b6000612cbb826121d5565b612cc58185612ca5565b9350612cd58185602086016121f1565b80840191505092915050565b6000612ced8285612cb0565b9150612cf98284612cb0565b91508190509392505050565b7f596f7520617265206e6f742061646d696e000000000000000000000000000000600082015250565b6000612d3b6011836121e0565b9150612d4682612d05565b602082019050919050565b60006020820190508181036000830152612d6a81612d2e565b9050919050565b7f4e487b7100000000000000000000000000000000000000000000000000000000600052603260045260246000fd5b7f4e487b7100000000000000000000000000000000000000000000000000000000600052601160045260246000fd5b6000612dda82612287565b91507fffffffffffffffffffffffffffffffffffffffffffffffffffffffffffffffff8203612e0c57612e0b612da0565b5b600182019050919050565b6000612e228261243d565b9150612e2d8361243d565b9250828201905060ff811115612e4657612e45612da0565b5b92915050565b7f4552433732313a207472616e736665722066726f6d20696e636f72726563742060008201527f6f776e6572000000000000000000000000000000000000000000000000000000602082015250565b6000612ea86025836121e0565b9150612eb382612e4c565b604082019050919050565b60006020820190508181036000830152612ed781612e9b565b9050919050565b7f4552433732313a207472616e7366657220746f20746865207a65726f2061646460008201527f7265737300000000000000000000000000000000000000000000000000000000602082015250565b6000612f3a6024836121e0565b9150612f4582612ede565b604082019050919050565b60006020820190508181036000830152612f6981612f2d565b9050919050565b7f4552433732313a20617070726f766520746f2063616c6c657200000000000000600082015250565b6000612fa66019836121e0565b9150612fb182612f70565b602082019050919050565b60006020820190508181036000830152612fd581612f99565b9050919050565b7f4552433732313a207472616e7366657220746f206e6f6e20455243373231526560008201527f63656976657220696d706c656d656e7465720000000000000000000000000000602082015250565b60006130386032836121e0565b915061304382612fdc565b604082019050919050565b600060208201905081810360008301526130678161302b565b9050919050565b7f45524337323155524953746f726167653a2055524920736574206f66206e6f6e60008201527f6578697374656e7420746f6b656e000000000000000000000000000000000000602082015250565b60006130ca602e836121e0565b91506130d58261306e565b604082019050919050565b600060208201905081810360008301526130f9816130bd565b9050919050565b60008190508160005260206000209050919050565b60006020601f8301049050919050565b600082821b905092915050565b6000600883026131627fffffffffffffffffffffffffffffffffffffffffffffffffffffffffffffffff82613125565b61316c8683613125565b95508019841693508086168417925050509392505050565b6000819050919050565b60006131a96131a461319f84612287565b613184565b612287565b9050919050565b6000819050919050565b6131c38361318e565b6131d76131cf826131b0565b848454613132565b825550505050565b600090565b6131ec6131df565b6131f78184846131ba565b505050565b5b8181101561321b576132106000826131e4565b6001810190506131fd565b5050565b601f8211156132605761323181613100565b61323a84613115565b81016020851015613249578190505b61325d61325585613115565b8301826131fc565b50505b505050565b600082821c905092915050565b600061328360001984600802613265565b1980831691505092915050565b600061329c8383613272565b9150826002028217905092915050565b6132b5826121d5565b67ffffffffffffffff8111156132ce576132cd61247e565b5b6132d8825461287c565b6132e382828561321f565b600060209050601f8311600181146133165760008415613304578287015190505b61330e8582613290565b865550613376565b601f19841661332486613100565b60005b8281101561334c57848901518255600182019150602085019450602081019050613327565b868310156133695784890151613365601f891682613272565b8355505b6001600288020188555050505b505050505050565b600081519050919050565b600082825260208201905092915050565b60006133a58261337e565b6133af8185613389565b93506133bf8185602086016121f1565b6133c88161221b565b840191505092915050565b60006080820190506133e860008301876122ea565b6133f560208301866122ea565b61340260408301856123a7565b8181036060830152613414818461339a565b905095945050505050565b60008151905061342e816120bb565b92915050565b60006020828403121561344a57613449612085565b5b60006134588482850161341f565b91505092915050565b7f4e487b7100000000000000000000000000000000000000000000000000000000600052601260045260246000fd5b7f4552433732313a206d696e7420746f20746865207a65726f2061646472657373600082015250565b60006134c66020836121e0565b91506134d182613490565b602082019050919050565b600060208201905081810360008301526134f5816134b9565b9050919050565b7f4552433732313a20746f6b656e20616c7265616479206d696e74656400000000600082015250565b6000613532601c836121e0565b915061353d826134fc565b602082019050919050565b6000602082019050818103600083015261356181613525565b905091905056fea2646970667358221220cb25558b0ff2d18593a2880201491750731e11d64ea63a1a7565c45d7e98e2d464736f6c63430008120033",
  "linkReferences": {},
  "deployedLinkReferences": {}
}